{
  "_format": "hh-sol-artifact-1",
  "contractName": "MerkleAirdrop",
  "sourceName": "contracts/merkletree.sol",
  "abi": [
    {
      "inputs": [
        {
          "internalType": "address",
          "name": "_token",
          "type": "address"
        },
        {
          "internalType": "bytes32",
          "name": "_merkleRootHash",
          "type": "bytes32"
        }
      ],
      "stateMutability": "nonpayable",
      "type": "constructor"
    },
    {
      "anonymous": false,
      "inputs": [
        {
          "indexed": true,
          "internalType": "address",
          "name": "user",
          "type": "address"
        },
        {
          "indexed": false,
          "internalType": "uint256",
          "name": "amount",
          "type": "uint256"
        }
      ],
      "name": "SuccessfulClaim",
      "type": "event"
    },
    {
      "inputs": [
        {
          "internalType": "bytes32",
          "name": "_newMerkleRoot",
          "type": "bytes32"
        }
      ],
      "name": "UpdateMerkleRoot",
      "outputs": [],
      "stateMutability": "nonpayable",
      "type": "function"
    },
    {
      "inputs": [
        {
          "internalType": "uint256",
          "name": "_amount",
          "type": "uint256"
        },
        {
          "internalType": "bytes32[]",
          "name": "_merkleProof",
          "type": "bytes32[]"
        }
      ],
      "name": "claimAirdrop",
      "outputs": [],
      "stateMutability": "nonpayable",
      "type": "function"
    },
    {
      "inputs": [
        {
          "internalType": "address",
          "name": "",
          "type": "address"
        }
      ],
      "name": "hasClaimed",
      "outputs": [
        {
          "internalType": "bool",
          "name": "",
          "type": "bool"
        }
      ],
      "stateMutability": "view",
      "type": "function"
    },
    {
      "inputs": [],
      "name": "merkleRootHash",
      "outputs": [
        {
          "internalType": "bytes32",
          "name": "",
          "type": "bytes32"
        }
      ],
      "stateMutability": "view",
      "type": "function"
    },
    {
      "inputs": [],
      "name": "owner",
      "outputs": [
        {
          "internalType": "address",
          "name": "",
          "type": "address"
        }
      ],
      "stateMutability": "view",
      "type": "function"
    },
    {
      "inputs": [],
      "name": "token",
      "outputs": [
        {
          "internalType": "contract IERC20",
          "name": "",
          "type": "address"
        }
      ],
      "stateMutability": "view",
      "type": "function"
    },
    {
      "inputs": [],
      "name": "withdrawRemainingTokens",
      "outputs": [],
      "stateMutability": "nonpayable",
      "type": "function"
    }
  ],
  "bytecode": "0x60806040523480156200001157600080fd5b50604051620013653803806200136583398181016040528101906200003791906200016c565b81600160006101000a81548173ffffffffffffffffffffffffffffffffffffffff021916908373ffffffffffffffffffffffffffffffffffffffff16021790555080600281905550336000806101000a81548173ffffffffffffffffffffffffffffffffffffffff021916908373ffffffffffffffffffffffffffffffffffffffff1602179055505050620001b3565b600080fd5b600073ffffffffffffffffffffffffffffffffffffffff82169050919050565b6000620000f982620000cc565b9050919050565b6200010b81620000ec565b81146200011757600080fd5b50565b6000815190506200012b8162000100565b92915050565b6000819050919050565b620001468162000131565b81146200015257600080fd5b50565b60008151905062000166816200013b565b92915050565b60008060408385031215620001865762000185620000c7565b5b600062000196858286016200011a565b9250506020620001a98582860162000155565b9150509250929050565b6111a280620001c36000396000f3fe608060405234801561001057600080fd5b506004361061007d5760003560e01c80638da5cb5b1161005b5780638da5cb5b146100d8578063ae8bdbc1146100f6578063ddb6dfc414610112578063fc0c546a146101305761007d565b80630bcae1ac1461008257806373b2e80e1461009e5780638afbf669146100ce575b600080fd5b61009c60048036038101906100979190610a26565b61014e565b005b6100b860048036038101906100b39190610ae0565b6103de565b6040516100c59190610b28565b60405180910390f35b6100d66103fe565b005b6100e0610671565b6040516100ed9190610b52565b60405180910390f35b610110600480360381019061010b9190610b6d565b610695565b005b61011a610772565b6040516101279190610ba9565b60405180910390f35b610138610778565b6040516101459190610c23565b60405180910390f35b600360003373ffffffffffffffffffffffffffffffffffffffff1673ffffffffffffffffffffffffffffffffffffffff16815260200190815260200160002060009054906101000a900460ff16156101db576040517f08c379a00000000000000000000000000000000000000000000000000000000081526004016101d290610c9b565b60405180910390fd5b600033836040516020016101f0929190610d24565b604051602081830303815290604052805190602001209050610215826002548361079e565b610254576040517f08c379a000000000000000000000000000000000000000000000000000000000815260040161024b90610d9c565b60405180910390fd5b6001600360003373ffffffffffffffffffffffffffffffffffffffff1673ffffffffffffffffffffffffffffffffffffffff16815260200190815260200160002060006101000a81548160ff021916908315150217905550600160009054906101000a900473ffffffffffffffffffffffffffffffffffffffff1673ffffffffffffffffffffffffffffffffffffffff1663a9059cbb33856040518363ffffffff1660e01b8152600401610309929190610dcb565b6020604051808303816000875af1158015610328573d6000803e3d6000fd5b505050506040513d601f19601f8201168201806040525081019061034c9190610e20565b61038b576040517f08c379a000000000000000000000000000000000000000000000000000000000815260040161038290610e99565b60405180910390fd5b3373ffffffffffffffffffffffffffffffffffffffff167f202cbacd7e5badcca8e37bda47aefed3ff6e95b4dbf6b2823d445ae9a989a832846040516103d19190610eb9565b60405180910390a2505050565b60036020528060005260406000206000915054906101000a900460ff1681565b60008054906101000a900473ffffffffffffffffffffffffffffffffffffffff1673ffffffffffffffffffffffffffffffffffffffff163373ffffffffffffffffffffffffffffffffffffffff161461048c576040517f08c379a000000000000000000000000000000000000000000000000000000000815260040161048390610f20565b60405180910390fd5b6000600160009054906101000a900473ffffffffffffffffffffffffffffffffffffffff1673ffffffffffffffffffffffffffffffffffffffff166370a08231306040518263ffffffff1660e01b81526004016104e99190610b52565b602060405180830381865afa158015610506573d6000803e3d6000fd5b505050506040513d601f19601f8201168201806040525081019061052a9190610f55565b90506000811161056f576040517f08c379a000000000000000000000000000000000000000000000000000000000815260040161056690610fce565b60405180910390fd5b600160009054906101000a900473ffffffffffffffffffffffffffffffffffffffff1673ffffffffffffffffffffffffffffffffffffffff1663a9059cbb60008054906101000a900473ffffffffffffffffffffffffffffffffffffffff16836040518363ffffffff1660e01b81526004016105ec929190610dcb565b6020604051808303816000875af115801561060b573d6000803e3d6000fd5b505050506040513d601f19601f8201168201806040525081019061062f9190610e20565b61066e576040517f08c379a00000000000000000000000000000000000000000000000000000000081526004016106659061103a565b60405180910390fd5b50565b60008054906101000a900473ffffffffffffffffffffffffffffffffffffffff1681565b60008054906101000a900473ffffffffffffffffffffffffffffffffffffffff1673ffffffffffffffffffffffffffffffffffffffff163373ffffffffffffffffffffffffffffffffffffffff1614610723576040517f08c379a000000000000000000000000000000000000000000000000000000000815260040161071a90610f20565b60405180910390fd5b6000801b8103610768576040517f08c379a000000000000000000000000000000000000000000000000000000000815260040161075f906110a6565b60405180910390fd5b8060028190555050565b60025481565b600160009054906101000a900473ffffffffffffffffffffffffffffffffffffffff1681565b6000826107ab85846107b5565b1490509392505050565b60008082905060005b8451811015610800576107eb828683815181106107de576107dd6110c6565b5b602002602001015161080b565b915080806107f890611124565b9150506107be565b508091505092915050565b60008183106108235761081e8284610836565b61082e565b61082d8383610836565b5b905092915050565b600082600052816020526040600020905092915050565b6000604051905090565b600080fd5b600080fd5b6000819050919050565b61087481610861565b811461087f57600080fd5b50565b6000813590506108918161086b565b92915050565b600080fd5b6000601f19601f8301169050919050565b7f4e487b7100000000000000000000000000000000000000000000000000000000600052604160045260246000fd5b6108e58261089c565b810181811067ffffffffffffffff82111715610904576109036108ad565b5b80604052505050565b600061091761084d565b905061092382826108dc565b919050565b600067ffffffffffffffff821115610943576109426108ad565b5b602082029050602081019050919050565b600080fd5b6000819050919050565b61096c81610959565b811461097757600080fd5b50565b60008135905061098981610963565b92915050565b60006109a261099d84610928565b61090d565b905080838252602082019050602084028301858111156109c5576109c4610954565b5b835b818110156109ee57806109da888261097a565b8452602084019350506020810190506109c7565b5050509392505050565b600082601f830112610a0d57610a0c610897565b5b8135610a1d84826020860161098f565b91505092915050565b60008060408385031215610a3d57610a3c610857565b5b6000610a4b85828601610882565b925050602083013567ffffffffffffffff811115610a6c57610a6b61085c565b5b610a78858286016109f8565b9150509250929050565b600073ffffffffffffffffffffffffffffffffffffffff82169050919050565b6000610aad82610a82565b9050919050565b610abd81610aa2565b8114610ac857600080fd5b50565b600081359050610ada81610ab4565b92915050565b600060208284031215610af657610af5610857565b5b6000610b0484828501610acb565b91505092915050565b60008115159050919050565b610b2281610b0d565b82525050565b6000602082019050610b3d6000830184610b19565b92915050565b610b4c81610aa2565b82525050565b6000602082019050610b676000830184610b43565b92915050565b600060208284031215610b8357610b82610857565b5b6000610b918482850161097a565b91505092915050565b610ba381610959565b82525050565b6000602082019050610bbe6000830184610b9a565b92915050565b6000819050919050565b6000610be9610be4610bdf84610a82565b610bc4565b610a82565b9050919050565b6000610bfb82610bce565b9050919050565b6000610c0d82610bf0565b9050919050565b610c1d81610c02565b82525050565b6000602082019050610c386000830184610c14565b92915050565b600082825260208201905092915050565b7f616c726561647920636c61696d65640000000000000000000000000000000000600082015250565b6000610c85600f83610c3e565b9150610c9082610c4f565b602082019050919050565b60006020820190508181036000830152610cb481610c78565b9050919050565b60008160601b9050919050565b6000610cd382610cbb565b9050919050565b6000610ce582610cc8565b9050919050565b610cfd610cf882610aa2565b610cda565b82525050565b6000819050919050565b610d1e610d1982610861565b610d03565b82525050565b6000610d308285610cec565b601482019150610d408284610d0d565b6020820191508190509392505050565b7f496e76616c69642070726f6f6600000000000000000000000000000000000000600082015250565b6000610d86600d83610c3e565b9150610d9182610d50565b602082019050919050565b60006020820190508181036000830152610db581610d79565b9050919050565b610dc581610861565b82525050565b6000604082019050610de06000830185610b43565b610ded6020830184610dbc565b9392505050565b610dfd81610b0d565b8114610e0857600080fd5b50565b600081519050610e1a81610df4565b92915050565b600060208284031215610e3657610e35610857565b5b6000610e4484828501610e0b565b91505092915050565b7f7472616e73666572206661696c65640000000000000000000000000000000000600082015250565b6000610e83600f83610c3e565b9150610e8e82610e4d565b602082019050919050565b60006020820190508181036000830152610eb281610e76565b9050919050565b6000602082019050610ece6000830184610dbc565b92915050565b7f63616c6c6572206973206e6f74206f776e657200000000000000000000000000600082015250565b6000610f0a601383610c3e565b9150610f1582610ed4565b602082019050919050565b60006020820190508181036000830152610f3981610efd565b9050919050565b600081519050610f4f8161086b565b92915050565b600060208284031215610f6b57610f6a610857565b5b6000610f7984828501610f40565b91505092915050565b7f4e6f20746f6b656e73206c65667420746f2077697468647261772e0000000000600082015250565b6000610fb8601b83610c3e565b9150610fc382610f82565b602082019050919050565b60006020820190508181036000830152610fe781610fab565b9050919050565b7f546f6b656e207472616e73666572206661696c65642e00000000000000000000600082015250565b6000611024601683610c3e565b915061102f82610fee565b602082019050919050565b6000602082019050818103600083015261105381611017565b9050919050565b7f696e76616c696420646174612074797065000000000000000000000000000000600082015250565b6000611090601183610c3e565b915061109b8261105a565b602082019050919050565b600060208201905081810360008301526110bf81611083565b9050919050565b7f4e487b7100000000000000000000000000000000000000000000000000000000600052603260045260246000fd5b7f4e487b7100000000000000000000000000000000000000000000000000000000600052601160045260246000fd5b600061112f82610861565b91507fffffffffffffffffffffffffffffffffffffffffffffffffffffffffffffffff8203611161576111606110f5565b5b60018201905091905056fea2646970667358221220e0565dce3bb5af67b2e44e7fe96a09c0dd464cf979675f01177ee419b9f4e71464736f6c63430008140033",
  "linkReferences": {},
  "deployedLinkReferences": {}
}